:1000000022C046C0A2C244C043C0BDC541C040C01A
:100010003FC03EC03DC03CC03BC0A8C4EFC40102CD
:100020000000040001020408102002020202020281
:100030000000000036000000000038000000000052
:1000400037003101370111241FBECFE5D2E0DEBFFA
:10005000CDBF10E0A0E6B0E0E2E7F0E102C005901D
:100060000D92AA3AB107D9F721E0AAEAB0E001C09F
:100070001D92AB3CB207E1F710E0C2E2D0E003C052
:100080002197FE01D6D7C132D107D1F756D7E5C7A0
:10009000B7CF98EF980F903720F4682F81E090E069
:1000A000CEC708959FEF980F973008F082E0682F31
:1000B00082E090E0C4C7CF93DF93EC01009711F08A
:1000C000089714F0C2E0D0E0FE01EE0FFF1FEE0F24
:1000D000FF1FE758FF4F408151816281738181E3A7
:1000E00091E02AD38C2FDEDFD0933001C0932F0113
:1000F000D0932E01C0932D01DF91CF91089580E818
:10010000ECEAF0E0DF011D928A95E9F70895F7DF48
:1001100084E991E074D362E081E002D681E09AD66E
:10012000892B19F46CE170E002C06BE170E084E9A6
:1001300091E063D360E571E084E991E0B0D366E2D9
:1001400071E084E991E0B0C360ED77E080E090E099
:100150008BD540E052EC61E070E081E391E0ECD2BD
:1001600064E670E081E391E0E7D664EF71E080E05F
:1001700090E07AD567E670E081E391E0DDD664EF48
:1001800071E080E090E070D560E770E081E391E09D
:10019000D3D660ED77E080E090E066D582E090E035
:1001A0008ADF64E670E081E391E0C6D6B0CF2091AB
:1001B000AA0030E0A9014F5F5F4F4F77552760914C
:1001C000AB0070E04617570731F0F901E455FF4FD7
:1001D00080834093AA0008955091AB004091AA00FB
:1001E000842F90E0252F30E0821B930B451718F4E5
:1001F00080589F4F08950895EFDF682F84E991E0BC
:10020000FFC2CF93DF93C0E0D0E080912C0190E05B
:10021000C817D907B4F4E0DF892B69F08091AB00EF
:1002200090E0FC01E455FF4F608101968F7799279C
:100230008093AB0001C060E084E991E0E1D22196B7
:10024000E4CF10922C01DF91CF910895809160004E
:1002500090916100009719F0019711F00895CCCFAB
:10026000D0CF20E044E063E081E391E03CC281E351
:1002700091E0E5C181E391E004D1892B21F081E394
:1002800091E070D094DF80912D0190912E0120910A
:100290002F01309130012817390709F00CCF08954C
:1002A0000F931F93CF93DF93181619060CF055C0C8
:1002B000EC0184E991E0D8D2811102C0992749C0AC
:1002C000813071F4229709F042C099279093610020
:1002D0008093600084E991E0C7D280932C013DC0F7
:1002E000823091F4C130D10591F101E010E084E950
:1002F00091E0BAD2682F81E391E055D00F5F1F4F94
:100300000C171D07A4F329C0833051F42297F9F488
:1003100084E991E0A9D290932E0180932D011DC014
:10032000843051F4229799F484E991E09DD2DF91D1
:10033000CF911F910F91ADCE853049F4229739F4BA
:1003400084E991E0DF91CF911F910F918DC286E0FA
:1003500090E09093610080936000DF91CF911F91B6
:100360000F91089520919201309193012817390738
:10037000B9F49091500180915101981789F0E09162
:100380005001F0E0EE5AFE4F80812091500130E0A4
:100390002F5F3F4F2F7333272093500190E0089534
:1003A0008FEF9FEF08951F93CF93DF93DC015C964F
:1003B0002D913C915D972115310539F481E090E054
:1003C00013969C938E9312973DC05196ED91FC919C
:1003D000529750969C915097892F80951FB75E96A3
:1003E0004C915E9741FB772770F941FD6095F89439
:1003F0004081772311F0492B01C048234083E90154
:100400002197F1F748E0508160FF02C0592B01C0ED
:1004100058235083E9012197F1F76695415099F7E8
:10042000772321F090818923808303C08081982BDA
:1004300090831FBF5C968D919C915D970197F1F71A
:1004400021E030E0C901DF91CF911F910895209103
:100450009201309193012817390781F4909150014E
:1004600080915101981751F0E0915001F0E0EE5A5F
:10047000FE4F8081082E000C990B08958FEF9FEF9F
:10048000089520919201309193012817390769F45A
:10049000809151012091500190E0805C9F4F821B20
:1004A000910960E470E060D5089580E090E00895DF
:1004B00020919201309193012817390739F48FB7B1
:1004C000F89410925101109250018FBF0895E0915D
:1004D0009201F0919301E817F90769F4A389B489AF
:1004E0009C918589809589238C9310929301109219
:1004F000920181E0089580E00895CF93DF93EC01AD
:100500008A8D9B8D892BE9F08091920190919301C6
:100510008C179D07B1F0009709F0D9DF8E8D8E7F83
:100520008E8F1092510110925001D0939301C0937D
:100530009201EB89FC8990818D89892B808381E0F0
:1005400001C080E0DF91CF9108951F920F920FB606
:100550000F9211242F933F934F935F936F937F9349
:100560008F939F93AF93BF93EF93FF93E09192018B
:10057000F0919301309709F451C0968DA685B78507
:10058000858591FF04C09C91892329F447C09C91E3
:10059000892309F043C0A389B4899C9185898095FA
:1005A00089238C93868997890197F1F7608D718DE6
:1005B000A685B785558538E020E0CB010197F1F796
:1005C000822F90E095958795282F4C91452309F02F
:1005D0002068315091F7868D81FD209580915101E1
:1005E00090E001968F73992730915001381749F0A8
:1005F000A0915101B0E0AE5ABE4F2C9380935101AF
:1006000003C0868D8160868F828D938D0197F1F76F
:10061000A389B4899C918589892B8C93FF91EF9153
:10062000BF91AF919F918F917F916F915F914F910A
:100630003F912F910F900FBE0F901F9018952DE9AD
:1006400030E0FC013183208342CF1F93CF93DF93AF
:10065000EC01162F6E8D6695617081E06827812F01
:10066000AED361E0812F5CD3612F70E0FB01EC5DC4
:10067000FF4FE491E88BFB01E65DFF4FE491F0E072
:10068000EE0FFF1FEA5CFF4F859194919A8B898B47
:10069000DF91CF911F9108951F93CF93DF93EC01CA
:1006A000162F60E0812F3CD38E8D81FD03C061E069
:1006B000812F85D31C87612F70E0FB01EC5DFF4F1C
:1006C000E491ED87FB01E65DFF4FE491F0E0EE0F72
:1006D000FF1FE05DFF4F859194919F878E87DF918B
:1006E000CF911F9108951F93CF93DF93EC01162FA5
:1006F0001B821A8288EE93E0A0E0B0E08C839D8399
:10070000AE83BF838DE990E0998388831F8A1E8A18
:10071000198E188E1B8E1A8E1D8E1C8E8E8D8E7FBE
:1007200020FB81F98E8F642FCE018FDF612FCE01E8
:10073000DF91CF911F91B0CFCF93DF93EC019A015E
:10074000AB011B8E1A8E198E188E1F8A1E8A60E0CE
:1007500079E08DE390E03DD4B9012430310518F003
:10076000C901039702C081E090E09D8F8C8F8C853A
:10077000863008F03EC0C901969587958431910571
:1007800010F0439702C081E090E09F8B8E8B663023
:10079000710518F0C901059702C081E090E0998FBA
:1007A000888FC90163E070E0CED3969587959695C2
:1007B00087958D30910510F00C9702C081E090E094
:1007C0009B8F8A8F8BB780628BBF9C85963018F089
:1007D00020E030E002C025E330E03C8B2B8B81E051
:1007E00001C0880F9A95EAF78D8B8C8D9D8D0197AE
:1007F000F1F7CE01DF91CF9180CE862F63C080C00C
:10080000CF93809195018823C1F080919601803229
:1008100018F080E090E019C080919701E0916200AB
:10082000F0916300E80FF11D6083809197018F5F65
:10083000809397018093960106C0C62F8FD088239E
:1008400041F38C2F63D081E090E0CF9108958091A7
:100850009601882331F090E020919701821B910945
:10086000089575D090E00895F2DF892BA9F080916A
:100870009601882371F020919701E0916200F09138
:100880006300E20FF11D808190E02F5F20939701BC
:1008900008954CD090E008958FEF9FEF08957093E6
:1008A000990160939801089570939B0160939A0158
:1008B000089510929E0110929F0110929C01109237
:1008C0009D010895CF93DF931F92CDB7DEB7898343
:1008D000F0DF89818093A10110929B0110929A010F
:1008E0001092990110929801C29AC09ABA9AB89837
:1008F00088EA8DB980EF8EB90F90DF91CF9108957E
:10090000BA98B8981DB880EF8EB9089590919D015E
:100910009F5F9F7020919C019217E1F3E92FF0E017
:10092000E554FE4F808390939D01089580919E0130
:1009300090919F019817E1F3E0919E01EF5FEF70B6
:10094000E0939E01F0E0E555FE4F8081089590917F
:100950009E0180919F01891B8F70089590919D0148
:1009600080919C019F5F891B8F7008951F920F9249
:100970000FB60F9211240F931F932F933F934F9312
:100980005F936F937F938F939F93AF93BF93CF9317
:10099000EF93FF93009198011091990101151105B2
:1009A00061F0C0919F0180919E018C1731F0CFDFE3
:1009B00090E0F8010995C0939E011092A001B898AB
:1009C000B29B04C0B09BFCCF88EA01C088EF8DB910
:1009D00080EF8EB9FF91EF91CF91BF91AF919F9131
:1009E0008F917F916F915F914F913F912F911F91C7
:1009F0000F910F900FBE0F901F9018951F920F929E
:100A00000FB60F9211240F931F932F933F934F9381
:100A10005F936F937F938F939F93AF93BF93CF9386
:100A2000EF93FF938091A001823009F44CC028F429
:100A3000882359F0813051F183C0843009F449C0D2
:100A400010F1853009F464C07BC08FB1882331F088
:100A50008FB186959091A101891330C0789B0DC00C
:100A6000E0919A01F0919B01309729F080919D01CE
:100A700080939C01099581E001C084E08093A001EE
:100A80001FB8B89A5BC08FB1811118C080919C01CA
:100A900090919D01981791F080919C018F5F8F70CC
:100AA00080939C01E0919C01F0E0E554FE4F808131
:100AB0008FB982E08093A001B89A03C0B89888EA01
:100AC0008DB980E73CC083E08093A001B8981FB83F
:100AD00035C085E08093A001B89880E78EB9009179
:100AE0009801109199010115110551F1C0919F01D3
:100AF00080919E018C1721F18EB18E7AE9F3759B5E
:100B00001FC025DF90E0F8010995C0939E0118C031
:100B100084E08093A0019FB180919F018F5F8F70CF
:100B200020919E01281749F080939F01E0919F0139
:100B3000F0E0E555FE4F9083A3CFB8988EE78EB9CD
:100B4000FF91EF91CF91BF91AF919F918F917F9145
:100B50006F915F914F913F912F911F910F910F9046
:100B60000FBE0F901F90189580B7807F80BF80B711
:100B7000806880BF8CB580648CBD8FEF8DBD80B7E1
:100B8000876080BF08951F920F920FB60F921124B5
:100B90002F933F938F939F93AF93BF938091A30124
:100BA0009091A401A091A501B091A6013091A2015C
:100BB00023E0230F2D3730F026E8230F0296A11DE6
:100BC000B11D03C00196A11DB11D2093A201809308
:100BD000A3019093A401A093A501B093A6018091D5
:100BE000A7019091A801A091A901B091AA01019635
:100BF000A11DB11D8093A7019093A801A093A90105
:100C0000B093AA01BF91AF919F918F913F912F9186
:100C10000F900FBE0F901F9018953FB7F8948091DA
:100C2000A7019091A801A091A901B091AA0122B7B2
:100C300008B601FE05C02F3F19F00196A11DB11D98
:100C40003FBFBA2FA92F982F8827820F911DA11D72
:100C5000B11DBC01CD0142E0660F771F881F991FAF
:100C60004A95D1F708950895CF92DF92EF92FF92BF
:100C7000CF93DF936B017C01D0DFEB01C114D10472
:100C8000E104F10479F0EFDFC8DF6C1B7D0B683EF7
:100C90007340A0F381E0C81AD108E108F108C851F7
:100CA000DC4FF2CFDF91CF91FF90EF90DF90CF90AC
:100CB00008958AB582608ABD8AB581608ABD83B78E
:100CC000887F836083BF789489B7826089BF4CDF57
:100CD00086B1876886B9379A0895813031F48AB52C
:100CE0008F778ABD8AB58F7B07C0823039F48AB589
:100CF0008F7D8ABD8AB58F7E8ABD0895833039F491
:100D000080B78F7D80BF80B78F7E80BF089584308D
:100D100031F48CB58F7D8CBD8CB58F7E8CBD0895E4
:100D2000CF93DF9387FF11C08F7741F0813041F07F
:100D3000823041F0833041F08FEF07C085E005C07D
:100D400082E003C084E001C083E090E0FC01EC5D40
:100D5000FF4F2491FC01E65DFF4F8491882361F1F0
:100D600090E0880F991FFC01E45CFF4FC591D4917E
:100D7000FC01EA5CFF4FA591B491611109C09FB7D6
:100D8000F8948881209582238883EC912E230BC0D0
:100D9000623061F49FB7F8943881822F8095832365
:100DA0008883EC912E2B2C939FBF06C08FB7F894AD
:100DB000E8812E2B28838FBFDF91CF9108950F9369
:100DC0001F93CF93DF931F92CDB7DEB787FF11C07C
:100DD0008F7741F0813041F0823041F0833041F033
:100DE0008FEF07C085E005C082E003C084E001C04A
:100DF00083E0282F30E0F901E25EFF4F8491F90192
:100E0000EC5DFF4F1491F901E65DFF4F0491002363
:100E1000D9F0882319F0698360DF6981E02FF0E061
:100E2000EE0FFF1FEA5CFF4FA591B4918FB76111E0
:100E300006C0F8949C91E12FE095E92303C0F89453
:100E4000EC91E12BEC938FBF0F90DF91CF911F912D
:100E50000F910895CF93DF9387FF11C08F7741F0F3
:100E6000813041F0823041F0833041F08FEF07C094
:100E700085E005C082E003C084E001C083E0282F44
:100E800030E0F901E25EFF4F8491F901EC5DFF4F24
:100E9000D491F901E65DFF4FC491CC2389F0811113
:100EA0001CDFEC2FF0E0EE0FFF1FE05DFF4FA59180
:100EB000B491EC91ED2381E090E021F480E002C058
:100EC00080E090E0DF91CF910895CF92DF92EF9292
:100ED000FF920F931F93CF93DF936C01EB017B0184
:100EE000E40EF51E00E010E0CE15DF0561F069911B
:100EF000D601ED91FC910190F081E02DC60109959C
:100F0000080F191FF1CFC801DF91CF911F910F91E9
:100F1000FF90EF90DF90CF900895FB0101900020AB
:100F2000E9F73197AF01461B570BDC01ED91FC91BE
:100F30000280F381E02D0994F0CF81B781BFB9DE43
:100F400003D998D9FECF0024552704C0080E591F95
:100F5000880F991F009729F076956795B8F371056A
:100F6000B9F7802D952F089597FB072E16F400945E
:100F700006D077FD08D049D007FC05D03EF4909507
:100F800081959F4F0895709561957F4F0895A1E2D7
:100F90001A2EAA1BBB1BFD010DC0AA1FBB1FEE1FF3
:100FA000FF1FA217B307E407F50720F0A21BB30B3E
:100FB000E40BF50B661F771F881F991F1A9469F7BA
:100FC00060957095809590959B01AC01BD01CF0116
:100FD0000895052E97FB16F400940FD057FD05D009
:100FE000D6DF07FC02D046F408C0509540953095F6
:100FF00021953F4F4F4F5F4F089590958095709585
:1010000061957F4F8F4F9F4F0895AA1BBB1B51E1E6
:1010100007C0AA1FBB1FA617B70710F0A61BB70B68
:10102000881F991F5A95A9F780959095BC01CD010D
:101030000895EE0FFF1F0590F491E02D0994262FDF
:10104000E199FECF1CBA9FBB8EBB2DBB0FB6F894A7
:10105000E29AE19A0FBE0196089510E0C2E2D0E054
:1010600003C0FE01E6DF2196C332D107D1F7F89421
:02107000FFCFB0
:101072000600AB0141540041542B42415544320019
:1010820041542B52455345540000000000C0120049
:101092000080250000004B00000096000000E100E7
:1010A2000000C2010090E3040000000000D30165CB
:0A10B200074102B2012702580200B4
:00000001FF
